{
  "_format": "hh-sol-artifact-1",
  "contractName": "MIRTokenClaim",
  "sourceName": "contracts/MIRTokenClaim.sol",
  "abi": [
    {
      "inputs": [
        {
          "internalType": "address",
          "name": "_mirTokenAddress",
          "type": "address"
        },
        {
          "internalType": "address",
          "name": "_initialOwner",
          "type": "address"
        }
      ],
      "stateMutability": "nonpayable",
      "type": "constructor"
    },
    {
      "inputs": [
        {
          "internalType": "address",
          "name": "owner",
          "type": "address"
        }
      ],
      "name": "OwnableInvalidOwner",
      "type": "error"
    },
    {
      "inputs": [
        {
          "internalType": "address",
          "name": "account",
          "type": "address"
        }
      ],
      "name": "OwnableUnauthorizedAccount",
      "type": "error"
    },
    {
      "inputs": [],
      "name": "ReentrancyGuardReentrantCall",
      "type": "error"
    },
    {
      "anonymous": false,
      "inputs": [
        {
          "indexed": false,
          "internalType": "uint256",
          "name": "newAmount",
          "type": "uint256"
        }
      ],
      "name": "BaseClaimAmountUpdated",
      "type": "event"
    },
    {
      "anonymous": false,
      "inputs": [
        {
          "indexed": false,
          "internalType": "uint256",
          "name": "newCooldown",
          "type": "uint256"
        }
      ],
      "name": "ClaimCooldownUpdated",
      "type": "event"
    },
    {
      "anonymous": false,
      "inputs": [
        {
          "indexed": false,
          "internalType": "bool",
          "name": "enabled",
          "type": "bool"
        }
      ],
      "name": "ClaimEnabledUpdated",
      "type": "event"
    },
    {
      "anonymous": false,
      "inputs": [
        {
          "indexed": false,
          "internalType": "uint256",
          "name": "level",
          "type": "uint256"
        },
        {
          "indexed": false,
          "internalType": "uint256",
          "name": "newLimit",
          "type": "uint256"
        }
      ],
      "name": "ClaimLimitUpdated",
      "type": "event"
    },
    {
      "anonymous": false,
      "inputs": [
        {
          "indexed": true,
          "internalType": "address",
          "name": "previousOwner",
          "type": "address"
        },
        {
          "indexed": true,
          "internalType": "address",
          "name": "newOwner",
          "type": "address"
        }
      ],
      "name": "OwnershipTransferred",
      "type": "event"
    },
    {
      "anonymous": false,
      "inputs": [
        {
          "indexed": true,
          "internalType": "address",
          "name": "user",
          "type": "address"
        },
        {
          "indexed": false,
          "internalType": "uint256",
          "name": "amount",
          "type": "uint256"
        },
        {
          "indexed": false,
          "internalType": "uint256",
          "name": "timestamp",
          "type": "uint256"
        }
      ],
      "name": "TokensClaimed",
      "type": "event"
    },
    {
      "inputs": [],
      "name": "baseClaimAmount",
      "outputs": [
        {
          "internalType": "uint256",
          "name": "",
          "type": "uint256"
        }
      ],
      "stateMutability": "view",
      "type": "function"
    },
    {
      "inputs": [
        {
          "internalType": "uint256",
          "name": "_level",
          "type": "uint256"
        }
      ],
      "name": "calculateClaimAmount",
      "outputs": [
        {
          "internalType": "uint256",
          "name": "",
          "type": "uint256"
        }
      ],
      "stateMutability": "view",
      "type": "function"
    },
    {
      "inputs": [
        {
          "internalType": "address",
          "name": "_user",
          "type": "address"
        }
      ],
      "name": "canClaim",
      "outputs": [
        {
          "internalType": "bool",
          "name": "",
          "type": "bool"
        }
      ],
      "stateMutability": "view",
      "type": "function"
    },
    {
      "inputs": [],
      "name": "claimCooldown",
      "outputs": [
        {
          "internalType": "uint256",
          "name": "",
          "type": "uint256"
        }
      ],
      "stateMutability": "view",
      "type": "function"
    },
    {
      "inputs": [],
      "name": "claimEnabled",
      "outputs": [
        {
          "internalType": "bool",
          "name": "",
          "type": "bool"
        }
      ],
      "stateMutability": "view",
      "type": "function"
    },
    {
      "inputs": [
        {
          "internalType": "address",
          "name": "",
          "type": "address"
        }
      ],
      "name": "claimInfo",
      "outputs": [
        {
          "internalType": "uint256",
          "name": "lastClaimTime",
          "type": "uint256"
        },
        {
          "internalType": "uint256",
          "name": "totalClaimed",
          "type": "uint256"
        }
      ],
      "stateMutability": "view",
      "type": "function"
    },
    {
      "inputs": [
        {
          "internalType": "uint256",
          "name": "_level",
          "type": "uint256"
        }
      ],
      "name": "claimTokens",
      "outputs": [
        {
          "internalType": "bool",
          "name": "",
          "type": "bool"
        }
      ],
      "stateMutability": "nonpayable",
      "type": "function"
    },
    {
      "inputs": [
        {
          "internalType": "uint256",
          "name": "",
          "type": "uint256"
        }
      ],
      "name": "levelClaimLimit",
      "outputs": [
        {
          "internalType": "uint256",
          "name": "",
          "type": "uint256"
        }
      ],
      "stateMutability": "view",
      "type": "function"
    },
    {
      "inputs": [],
      "name": "mirToken",
      "outputs": [
        {
          "internalType": "contract MIRToken",
          "name": "",
          "type": "address"
        }
      ],
      "stateMutability": "view",
      "type": "function"
    },
    {
      "inputs": [
        {
          "internalType": "address",
          "name": "_user",
          "type": "address"
        }
      ],
      "name": "nextClaimTime",
      "outputs": [
        {
          "internalType": "uint256",
          "name": "",
          "type": "uint256"
        }
      ],
      "stateMutability": "view",
      "type": "function"
    },
    {
      "inputs": [],
      "name": "owner",
      "outputs": [
        {
          "internalType": "address",
          "name": "",
          "type": "address"
        }
      ],
      "stateMutability": "view",
      "type": "function"
    },
    {
      "inputs": [],
      "name": "renounceOwnership",
      "outputs": [],
      "stateMutability": "nonpayable",
      "type": "function"
    },
    {
      "inputs": [
        {
          "internalType": "uint256",
          "name": "_amount",
          "type": "uint256"
        }
      ],
      "name": "setBaseClaimAmount",
      "outputs": [],
      "stateMutability": "nonpayable",
      "type": "function"
    },
    {
      "inputs": [
        {
          "internalType": "uint256",
          "name": "_cooldown",
          "type": "uint256"
        }
      ],
      "name": "setClaimCooldown",
      "outputs": [],
      "stateMutability": "nonpayable",
      "type": "function"
    },
    {
      "inputs": [
        {
          "internalType": "bool",
          "name": "_enabled",
          "type": "bool"
        }
      ],
      "name": "setClaimEnabled",
      "outputs": [],
      "stateMutability": "nonpayable",
      "type": "function"
    },
    {
      "inputs": [
        {
          "internalType": "uint256",
          "name": "_level",
          "type": "uint256"
        },
        {
          "internalType": "uint256",
          "name": "_limit",
          "type": "uint256"
        }
      ],
      "name": "setLevelClaimLimit",
      "outputs": [],
      "stateMutability": "nonpayable",
      "type": "function"
    },
    {
      "inputs": [
        {
          "internalType": "address",
          "name": "newOwner",
          "type": "address"
        }
      ],
      "name": "transferOwnership",
      "outputs": [],
      "stateMutability": "nonpayable",
      "type": "function"
    },
    {
      "inputs": [
        {
          "internalType": "uint256",
          "name": "_amount",
          "type": "uint256"
        }
      ],
      "name": "withdrawTokens",
      "outputs": [],
      "stateMutability": "nonpayable",
      "type": "function"
    }
  ],
  "bytecode": "0x608060405262015180600555678ac7230489e800006006556001600760006101000a81548160ff0219169083151502179055503480156200003f57600080fd5b506040516200146e3803806200146e833981810160405281019062000065919062000314565b80600073ffffffffffffffffffffffffffffffffffffffff168173ffffffffffffffffffffffffffffffffffffffff1603620000db5760006040517f1e4fbdf7000000000000000000000000000000000000000000000000000000008152600401620000d291906200036c565b60405180910390fd5b620000ec81620001e660201b60201c565b506001808190555081600260006101000a81548173ffffffffffffffffffffffffffffffffffffffff021916908373ffffffffffffffffffffffffffffffffffffffff160217905550678ac7230489e800006004600060018152602001908152602001600020819055506801158e460913d000006004600060028152602001908152602001600020819055506801a055690d9db800006004600060038152602001908152602001600020819055506802b5e3af16b188000060046000600481526020019081526020016000208190555068056bc75e2d63100000600460006005815260200190815260200160002081905550505062000389565b60008060009054906101000a900473ffffffffffffffffffffffffffffffffffffffff169050816000806101000a81548173ffffffffffffffffffffffffffffffffffffffff021916908373ffffffffffffffffffffffffffffffffffffffff1602179055508173ffffffffffffffffffffffffffffffffffffffff168173ffffffffffffffffffffffffffffffffffffffff167f8be0079c531659141344cd1fd0a4f28419497f9722a3daafe3b4186f6b6457e060405160405180910390a35050565b600080fd5b600073ffffffffffffffffffffffffffffffffffffffff82169050919050565b6000620002dc82620002af565b9050919050565b620002ee81620002cf565b8114620002fa57600080fd5b50565b6000815190506200030e81620002e3565b92915050565b600080604083850312156200032e576200032d620002aa565b5b60006200033e85828601620002fd565b92505060206200035185828601620002fd565b9150509250929050565b6200036681620002cf565b82525050565b60006020820190506200038360008301846200035b565b92915050565b6110d580620003996000396000f3fe608060405234801561001057600080fd5b50600436106101165760003560e01c806379c34318116100a2578063c5f4df8a11610071578063c5f4df8a146102cb578063d97830b1146102e9578063e0f3cc391461031a578063f2fde38b1461034a578063fdea36571461036657610116565b806379c34318146102435780638da5cb5b1461026157806392929a091461027f578063bf3506c11461029b57610116565b8063315a095d116100e9578063315a095d146101a157806346e04a2f146101bd57806359c9eb90146101ed57806370f23da714610209578063715018a61461023957610116565b8063011b52ca1461011b5780630b5cb45a1461013757806313b6eb09146101535780632866ed2114610183575b600080fd5b61013560048036038101906101309190610bbc565b610384565b005b610151600480360381019061014c9190610be9565b6103cd565b005b61016d60048036038101906101689190610bbc565b61047a565b60405161017a9190610c38565b60405180910390f35b61018b610491565b6040516101989190610c6e565b60405180910390f35b6101bb60048036038101906101b69190610bbc565b6104a4565b005b6101d760048036038101906101d29190610bbc565b610595565b6040516101e49190610c6e565b60405180910390f35b61020760048036038101906102029190610bbc565b6107f4565b005b610223600480360381019061021e9190610ce7565b61083d565b6040516102309190610c38565b60405180910390f35b610241610847565b005b61024b61085b565b6040516102589190610c38565b60405180910390f35b610269610861565b6040516102769190610d23565b60405180910390f35b61029960048036038101906102949190610d6a565b61088a565b005b6102b560048036038101906102b09190610ce7565b6108e6565b6040516102c29190610c6e565b60405180910390f35b6102d36108f1565b6040516102e09190610df6565b60405180910390f35b61030360048036038101906102fe9190610ce7565b610917565b604051610311929190610e11565b60405180910390f35b610334600480360381019061032f9190610bbc565b61093b565b6040516103419190610c38565b60405180910390f35b610364600480360381019061035f9190610ce7565b610953565b005b61036e6109d9565b60405161037b9190610c38565b60405180910390f35b61038c6109df565b806006819055507ff16c1c503815c7d2f09d398e662d50ffd8b4226a8e5d302798f238726234a4d2816040516103c29190610c38565b60405180910390a150565b6103d56109df565b6000821180156103e6575060058211155b610425576040517f08c379a000000000000000000000000000000000000000000000000000000000815260040161041c90610e97565b60405180910390fd5b8060046000848152602001908152602001600020819055507fd27965094f75646c2596061c383e13a3c1506404094802b0d02a2474bc44a750828260405161046e929190610e11565b60405180910390a15050565b60008160065461048a9190610ee6565b9050919050565b600760009054906101000a900460ff1681565b6104ac6109df565b600260009054906101000a900473ffffffffffffffffffffffffffffffffffffffff1673ffffffffffffffffffffffffffffffffffffffff1663a9059cbb6104f2610861565b836040518363ffffffff1660e01b8152600401610510929190610f28565b6020604051808303816000875af115801561052f573d6000803e3d6000fd5b505050506040513d601f19601f820116820180604052508101906105539190610f66565b610592576040517f08c379a000000000000000000000000000000000000000000000000000000000815260040161058990610fdf565b60405180910390fd5b50565b600061059f610a66565b600760009054906101000a900460ff166105ee576040517f08c379a00000000000000000000000000000000000000000000000000000000081526004016105e59061104b565b60405180910390fd5b6000821180156105ff575060058211155b61063e576040517f08c379a000000000000000000000000000000000000000000000000000000000815260040161063590610e97565b60405180910390fd5b6000600360003373ffffffffffffffffffffffffffffffffffffffff1673ffffffffffffffffffffffffffffffffffffffff1681526020019081526020016000209050600061068c8461047a565b9050600260009054906101000a900473ffffffffffffffffffffffffffffffffffffffff1673ffffffffffffffffffffffffffffffffffffffff1663a9059cbb33836040518363ffffffff1660e01b81526004016106eb929190610f28565b6020604051808303816000875af115801561070a573d6000803e3d6000fd5b505050506040513d601f19601f8201168201806040525081019061072e9190610f66565b61076d576040517f08c379a000000000000000000000000000000000000000000000000000000000815260040161076490610fdf565b60405180910390fd5b4282600001819055508082600101600082825461078a919061106b565b925050819055503373ffffffffffffffffffffffffffffffffffffffff167f9923b4306c6c030f2bdfbf156517d5983b87e15b96176da122cd4f2effa4ba7b82426040516107d9929190610e11565b60405180910390a26001925050506107ef610aac565b919050565b6107fc6109df565b806005819055507fcb7ee917d029d22a071ecb2b3db0556ca49424002997ae83d8a4fff552ef72f6816040516108329190610c38565b60405180910390a150565b6000429050919050565b61084f6109df565b6108596000610ab5565b565b60065481565b60008060009054906101000a900473ffffffffffffffffffffffffffffffffffffffff16905090565b6108926109df565b80600760006101000a81548160ff0219169083151502179055507f0cb4112864bc0c6ec295623acc6a9ba59fea56470dea9a9c148147e0fcacb7e5816040516108db9190610c6e565b60405180910390a150565b600060019050919050565b600260009054906101000a900473ffffffffffffffffffffffffffffffffffffffff1681565b60036020528060005260406000206000915090508060000154908060010154905082565b60046020528060005260406000206000915090505481565b61095b6109df565b600073ffffffffffffffffffffffffffffffffffffffff168173ffffffffffffffffffffffffffffffffffffffff16036109cd5760006040517f1e4fbdf70000000000000000000000000000000000000000000000000000000081526004016109c49190610d23565b60405180910390fd5b6109d681610ab5565b50565b60055481565b6109e7610b79565b73ffffffffffffffffffffffffffffffffffffffff16610a05610861565b73ffffffffffffffffffffffffffffffffffffffff1614610a6457610a28610b79565b6040517f118cdaa7000000000000000000000000000000000000000000000000000000008152600401610a5b9190610d23565b60405180910390fd5b565b600260015403610aa2576040517f3ee5aeb500000000000000000000000000000000000000000000000000000000815260040160405180910390fd5b6002600181905550565b60018081905550565b60008060009054906101000a900473ffffffffffffffffffffffffffffffffffffffff169050816000806101000a81548173ffffffffffffffffffffffffffffffffffffffff021916908373ffffffffffffffffffffffffffffffffffffffff1602179055508173ffffffffffffffffffffffffffffffffffffffff168173ffffffffffffffffffffffffffffffffffffffff167f8be0079c531659141344cd1fd0a4f28419497f9722a3daafe3b4186f6b6457e060405160405180910390a35050565b600033905090565b600080fd5b6000819050919050565b610b9981610b86565b8114610ba457600080fd5b50565b600081359050610bb681610b90565b92915050565b600060208284031215610bd257610bd1610b81565b5b6000610be084828501610ba7565b91505092915050565b60008060408385031215610c0057610bff610b81565b5b6000610c0e85828601610ba7565b9250506020610c1f85828601610ba7565b9150509250929050565b610c3281610b86565b82525050565b6000602082019050610c4d6000830184610c29565b92915050565b60008115159050919050565b610c6881610c53565b82525050565b6000602082019050610c836000830184610c5f565b92915050565b600073ffffffffffffffffffffffffffffffffffffffff82169050919050565b6000610cb482610c89565b9050919050565b610cc481610ca9565b8114610ccf57600080fd5b50565b600081359050610ce181610cbb565b92915050565b600060208284031215610cfd57610cfc610b81565b5b6000610d0b84828501610cd2565b91505092915050565b610d1d81610ca9565b82525050565b6000602082019050610d386000830184610d14565b92915050565b610d4781610c53565b8114610d5257600080fd5b50565b600081359050610d6481610d3e565b92915050565b600060208284031215610d8057610d7f610b81565b5b6000610d8e84828501610d55565b91505092915050565b6000819050919050565b6000610dbc610db7610db284610c89565b610d97565b610c89565b9050919050565b6000610dce82610da1565b9050919050565b6000610de082610dc3565b9050919050565b610df081610dd5565b82525050565b6000602082019050610e0b6000830184610de7565b92915050565b6000604082019050610e266000830185610c29565b610e336020830184610c29565b9392505050565b600082825260208201905092915050565b7f496e76616c6964206c6576656c00000000000000000000000000000000000000600082015250565b6000610e81600d83610e3a565b9150610e8c82610e4b565b602082019050919050565b60006020820190508181036000830152610eb081610e74565b9050919050565b7f4e487b7100000000000000000000000000000000000000000000000000000000600052601160045260246000fd5b6000610ef182610b86565b9150610efc83610b86565b9250828202610f0a81610b86565b91508282048414831517610f2157610f20610eb7565b5b5092915050565b6000604082019050610f3d6000830185610d14565b610f4a6020830184610c29565b9392505050565b600081519050610f6081610d3e565b92915050565b600060208284031215610f7c57610f7b610b81565b5b6000610f8a84828501610f51565b91505092915050565b7f546f6b656e207472616e73666572206661696c65640000000000000000000000600082015250565b6000610fc9601583610e3a565b9150610fd482610f93565b602082019050919050565b60006020820190508181036000830152610ff881610fbc565b9050919050565b7f436c61696d696e672069732063757272656e746c792064697361626c65640000600082015250565b6000611035601e83610e3a565b915061104082610fff565b602082019050919050565b6000602082019050818103600083015261106481611028565b9050919050565b600061107682610b86565b915061108183610b86565b925082820190508082111561109957611098610eb7565b5b9291505056fea264697066735822122068c4f24816ada26f53ea959d827c66775f459469d6faf087366ab979a218b43964736f6c63430008140033",
  "linkReferences": {},
  "deployedLinkReferences": {}
}